{
  "contractName": "mediinfo",
  "abi": [
    {
      "inputs": [],
      "payable": false,
      "stateMutability": "nonpayable",
      "type": "constructor"
    },
    {
      "constant": false,
      "inputs": [
        {
          "name": "_paddr",
          "type": "address"
        },
        {
          "name": "_name",
          "type": "string"
        },
        {
          "name": "_code",
          "type": "uint256"
        }
      ],
      "name": "set_patient",
      "outputs": [],
      "payable": false,
      "stateMutability": "nonpayable",
      "type": "function"
    },
    {
      "constant": true,
      "inputs": [],
      "name": "get_patient",
      "outputs": [
        {
          "name": "",
          "type": "string"
        },
        {
          "name": "",
          "type": "uint256"
        },
        {
          "name": "",
          "type": "uint256"
        }
      ],
      "payable": false,
      "stateMutability": "view",
      "type": "function"
    }
  ],
  "bytecode": "0x608060405234801561001057600080fd5b5033600160006101000a81548173ffffffffffffffffffffffffffffffffffffffff021916908373ffffffffffffffffffffffffffffffffffffffff160217905550610507806100616000396000f30060806040526004361061004c576000357c0100000000000000000000000000000000000000000000000000000000900463ffffffff1680634e12b9521461005157806368dbb3e5146100ef575b600080fd5b34801561005d57600080fd5b50610066610182565b6040518080602001848152602001838152602001828103825285818151815260200191508051906020019080838360005b838110156100b2578082015181840152602081019050610097565b50505050905090810190601f1680156100df5780820380516001836020036101000a031916815260200191505b5094505050505060405180910390f35b3480156100fb57600080fd5b50610180600480360381019080803573ffffffffffffffffffffffffffffffffffffffff169060200190929190803590602001908201803590602001908080601f0160208091040260200160405190810160405280939291908181526020018383808284378201915050505050509192919290803590602001909291905050506102f3565b005b60606000806000803373ffffffffffffffffffffffffffffffffffffffff1673ffffffffffffffffffffffffffffffffffffffff1681526020019081526020016000206001016000803373ffffffffffffffffffffffffffffffffffffffff1673ffffffffffffffffffffffffffffffffffffffff168152602001908152602001600020600201546000803373ffffffffffffffffffffffffffffffffffffffff1673ffffffffffffffffffffffffffffffffffffffff16815260200190815260200160002060000154828054600181600116156101000203166002900480601f0160208091040260200160405190810160405280929190818152602001828054600181600116156101000203166002900480156102e15780601f106102b6576101008083540402835291602001916102e1565b820191906000526020600020905b8154815290600101906020018083116102c457829003601f168201915b50505050509250925092509250909192565b600160009054906101000a900473ffffffffffffffffffffffffffffffffffffffff1673ffffffffffffffffffffffffffffffffffffffff163373ffffffffffffffffffffffffffffffffffffffff1614151561034f57600080fd5b426000808573ffffffffffffffffffffffffffffffffffffffff1673ffffffffffffffffffffffffffffffffffffffff16815260200190815260200160002060000181905550816000808573ffffffffffffffffffffffffffffffffffffffff1673ffffffffffffffffffffffffffffffffffffffff16815260200190815260200160002060010190805190602001906103ea929190610436565b50806000808573ffffffffffffffffffffffffffffffffffffffff1673ffffffffffffffffffffffffffffffffffffffff16815260200190815260200160002060020181905550505050565b828054600181600116156101000203166002900490600052602060002090601f016020900481019282601f1061047757805160ff19168380011785556104a5565b828001600101855582156104a5579182015b828111156104a4578251825591602001919060010190610489565b5b5090506104b291906104b6565b5090565b6104d891905b808211156104d45760008160009055506001016104bc565b5090565b905600a165627a7a72305820165aeea072c09d1083da3a969c02c67a1e2968bac523afb59b6cdcefca369fb90029",
  "source": "pragma solidity 0.4.24;\n\ncontract mediinfo {\n\n    struct Patient {\n        uint256 createdAt;\n        string name;\n        uint256 code;\n    }\n\n    mapping(address=>Patient) PatientOf;\n    address doctor;\n    \n\n    modifier onlyDoctor() {\n        require(msg.sender==doctor);\n        _;\n    }\n\n    constructor() public {\n        doctor = msg.sender;\n    }\n\n    function set_patient(address _paddr, string _name, uint256 _code) public onlyDoctor() {\n        PatientOf[_paddr].createdAt = now;\n        PatientOf[_paddr].name = _name;\n        PatientOf[_paddr].code = _code;\n        \n    }\n\n    function get_patient() public view returns(string, uint256, uint256) {\n        return (PatientOf[msg.sender].name, PatientOf[msg.sender].code, PatientOf[msg.sender].createdAt);\n    }\n\n}\n",
  "sourcePath": "/Users/Cho/EtherProjects/201809_tutorial/dapp_test/contracts/mediinfo.sol",
  "compiler": {
    "name": "solc",
    "version": "0.4.24+commit.e67f0147.Emscripten.clang"
  },
  "schemaVersion": "2.0.1",
  "updatedAt": "2018-09-09T03:01:16.449Z"
}